{
  "contractName": "Bet",
  "abi": [
    {
      "inputs": [
        {
          "internalType": "contract BetManager",
          "name": "_parentContract",
          "type": "address"
        },
        {
          "internalType": "address payable",
          "name": "_creatorAddress",
          "type": "address"
        },
        {
          "internalType": "uint256",
          "name": "_creatorBudget",
          "type": "uint256"
        },
        {
          "internalType": "string",
          "name": "_index",
          "type": "string"
        },
        {
          "internalType": "uint256",
          "name": "_ratio",
          "type": "uint256"
        },
        {
          "internalType": "uint256",
          "name": "_gameDate",
          "type": "uint256"
        },
        {
          "internalType": "uint256",
          "name": "_creatorChoice",
          "type": "uint256"
        },
        {
          "internalType": "uint256",
          "name": "_playersBudget",
          "type": "uint256"
        }
      ],
      "stateMutability": "nonpayable",
      "type": "constructor"
    },
    {
      "anonymous": false,
      "inputs": [
        {
          "indexed": false,
          "internalType": "uint256",
          "name": "_amount",
          "type": "uint256"
        },
        {
          "indexed": false,
          "internalType": "address",
          "name": "_address",
          "type": "address"
        }
      ],
      "name": "BetSpread",
      "type": "event"
    },
    {
      "anonymous": false,
      "inputs": [
        {
          "indexed": false,
          "internalType": "uint256",
          "name": "_amou",
          "type": "uint256"
        },
        {
          "indexed": false,
          "internalType": "address",
          "name": "_addr",
          "type": "address"
        }
      ],
      "name": "playerPayment",
      "type": "event"
    },
    {
      "stateMutability": "nonpayable",
      "type": "fallback"
    },
    {
      "inputs": [],
      "name": "creatorAddress",
      "outputs": [
        {
          "internalType": "address payable",
          "name": "",
          "type": "address"
        }
      ],
      "stateMutability": "view",
      "type": "function"
    },
    {
      "inputs": [],
      "name": "creatorBudget",
      "outputs": [
        {
          "internalType": "uint256",
          "name": "",
          "type": "uint256"
        }
      ],
      "stateMutability": "view",
      "type": "function"
    },
    {
      "inputs": [],
      "name": "creatorChoice",
      "outputs": [
        {
          "internalType": "uint256",
          "name": "",
          "type": "uint256"
        }
      ],
      "stateMutability": "view",
      "type": "function"
    },
    {
      "inputs": [],
      "name": "gameDate",
      "outputs": [
        {
          "internalType": "uint256",
          "name": "",
          "type": "uint256"
        }
      ],
      "stateMutability": "view",
      "type": "function"
    },
    {
      "inputs": [],
      "name": "index",
      "outputs": [
        {
          "internalType": "string",
          "name": "",
          "type": "string"
        }
      ],
      "stateMutability": "view",
      "type": "function"
    },
    {
      "inputs": [],
      "name": "paidWei",
      "outputs": [
        {
          "internalType": "uint256",
          "name": "",
          "type": "uint256"
        }
      ],
      "stateMutability": "view",
      "type": "function"
    },
    {
      "inputs": [],
      "name": "playerIndex",
      "outputs": [
        {
          "internalType": "uint256",
          "name": "",
          "type": "uint256"
        }
      ],
      "stateMutability": "view",
      "type": "function"
    },
    {
      "inputs": [
        {
          "internalType": "uint256",
          "name": "",
          "type": "uint256"
        }
      ],
      "name": "players",
      "outputs": [
        {
          "internalType": "uint256",
          "name": "_playerBetAmount",
          "type": "uint256"
        },
        {
          "internalType": "address payable",
          "name": "_playerAddress",
          "type": "address"
        }
      ],
      "stateMutability": "view",
      "type": "function"
    },
    {
      "inputs": [],
      "name": "playersBudget",
      "outputs": [
        {
          "internalType": "uint256",
          "name": "",
          "type": "uint256"
        }
      ],
      "stateMutability": "view",
      "type": "function"
    },
    {
      "inputs": [],
      "name": "ratio",
      "outputs": [
        {
          "internalType": "uint256",
          "name": "",
          "type": "uint256"
        }
      ],
      "stateMutability": "view",
      "type": "function"
    },
    {
      "stateMutability": "payable",
      "type": "receive"
    },
    {
      "inputs": [
        {
          "internalType": "uint256",
          "name": "_choice",
          "type": "uint256"
        }
      ],
      "name": "finishContract",
      "outputs": [],
      "stateMutability": "nonpayable",
      "type": "function"
    }
  ],
  "bytecode": "0x60806040523480156200001157600080fd5b50604051620019ad380380620019ad83398181016040528101906200003791906200026a565b84600190805190602001906200004f92919062000103565b50856003819055508360088190555082600481905550816005819055508060068190555087600a60006101000a81548173ffffffffffffffffffffffffffffffffffffffff021916908373ffffffffffffffffffffffffffffffffffffffff16021790555086600760006101000a81548173ffffffffffffffffffffffffffffffffffffffff021916908373ffffffffffffffffffffffffffffffffffffffff16021790555050505050505050506200056a565b828054620001119062000441565b90600052602060002090601f01602090048101928262000135576000855562000181565b82601f106200015057805160ff191683800117855562000181565b8280016001018555821562000181579182015b828111156200018057825182559160200191906001019062000163565b5b50905062000190919062000194565b5090565b5b80821115620001af57600081600090555060010162000195565b5090565b6000620001ca620001c4846200036f565b62000346565b905082815260208101848484011115620001e357600080fd5b620001f08482856200040b565b509392505050565b60008151905062000209816200051c565b92915050565b600081519050620002208162000536565b92915050565b600082601f8301126200023857600080fd5b81516200024a848260208601620001b3565b91505092915050565b600081519050620002648162000550565b92915050565b600080600080600080600080610100898b0312156200028857600080fd5b6000620002988b828c016200020f565b9850506020620002ab8b828c01620001f8565b9750506040620002be8b828c0162000253565b965050606089015167ffffffffffffffff811115620002dc57600080fd5b620002ea8b828c0162000226565b9550506080620002fd8b828c0162000253565b94505060a0620003108b828c0162000253565b93505060c0620003238b828c0162000253565b92505060e0620003368b828c0162000253565b9150509295985092959890939650565b60006200035262000365565b905062000360828262000477565b919050565b6000604051905090565b600067ffffffffffffffff8211156200038d576200038c620004dc565b5b62000398826200050b565b9050602081019050919050565b6000620003b282620003e1565b9050919050565b6000620003c682620003e1565b9050919050565b6000620003da82620003a5565b9050919050565b600073ffffffffffffffffffffffffffffffffffffffff82169050919050565b6000819050919050565b60005b838110156200042b5780820151818401526020810190506200040e565b838111156200043b576000848401525b50505050565b600060028204905060018216806200045a57607f821691505b60208210811415620004715762000470620004ad565b5b50919050565b62000482826200050b565b810181811067ffffffffffffffff82111715620004a457620004a3620004dc565b5b80604052505050565b7f4e487b7100000000000000000000000000000000000000000000000000000000600052602260045260246000fd5b7f4e487b7100000000000000000000000000000000000000000000000000000000600052604160045260246000fd5b6000601f19601f8301169050919050565b6200052781620003b9565b81146200053357600080fd5b50565b6200054181620003cd565b81146200054d57600080fd5b50565b6200055b8162000401565b81146200056757600080fd5b50565b611433806200057a6000396000f3fe6080604052600436106100a05760003560e01c806371ca337d1161006457806371ca337d146106b657806383d12eef146106e1578063b32a42ef1461070c578063c19f32e214610737578063e927fc5c14610762578063f71d96cb1461078d576105d2565b806303290a4a146105e15780632986c0e51461060a5780633ac3f524146106355780634095ba25146106605780636d1d92471461068b576105d2565b366105d2576000805414156102fe57600760009054906101000a900473ffffffffffffffffffffffffffffffffffffffff1673ffffffffffffffffffffffffffffffffffffffff163373ffffffffffffffffffffffffffffffffffffffff161461013f576040517f08c379a000000000000000000000000000000000000000000000000000000000815260040161013690610e9a565b60405180910390fd5b6003543414610183576040517f08c379a000000000000000000000000000000000000000000000000000000000815260040161017a90610e5a565b60405180910390fd5b6000600a60009054906101000a900473ffffffffffffffffffffffffffffffffffffffff1673ffffffffffffffffffffffffffffffffffffffff1660016040516024016101d09190610e38565b6040516020818303038152906040527f4b810214000000000000000000000000000000000000000000000000000000007bffffffffffffffffffffffffffffffffffffffffffffffffffffffff19166020820180517bffffffffffffffffffffffffffffffffffffffffffffffffffffffff838183161783525050505060405161025a9190610de4565b6000604051808303816000865af19150503d8060008114610297576040519150601f19603f3d011682016040523d82523d6000602084013e61029c565b606091505b50509050806102e0576040517f08c379a00000000000000000000000000000000000000000000000000000000081526004016102d790610eda565b60405180910390fd5b346000808282546102f19190610fae565b92505081905550506105d0565b600654341115610343576040517f08c379a000000000000000000000000000000000000000000000000000000000815260040161033a90610eba565b60405180910390fd5b6000600a60009054906101000a900473ffffffffffffffffffffffffffffffffffffffff1673ffffffffffffffffffffffffffffffffffffffff1660016040516024016103909190610e38565b6040516020818303038152906040527f4bbf5f2d000000000000000000000000000000000000000000000000000000007bffffffffffffffffffffffffffffffffffffffffffffffffffffffff19166020820180517bffffffffffffffffffffffffffffffffffffffffffffffffffffffff838183161783525050505060405161041a9190610de4565b6000604051808303816000865af19150503d8060008114610457576040519150601f19603f3d011682016040523d82523d6000602084013e61045c565b606091505b50509050806104a0576040517f08c379a000000000000000000000000000000000000000000000000000000000815260040161049790610e7a565b60405180910390fd5b34600660008282546104b2919061108f565b9250508190555034600960006002548152602001908152602001600020600001819055503360096000600254815260200190815260200160002060010160006101000a81548173ffffffffffffffffffffffffffffffffffffffff021916908373ffffffffffffffffffffffffffffffffffffffff1602179055507ff7bc3e30413da686cd0484ecc41d28a31565deae5609d1dc404c6816d4b148276009600060025481526020019081526020016000206000015460096000600254815260200190815260200160002060010160009054906101000a900473ffffffffffffffffffffffffffffffffffffffff166040516105ae929190610f15565b60405180910390a1600260008154809291906105c99061119a565b9190505550505b005b3480156105de57600080fd5b50005b3480156105ed57600080fd5b5061060860048036038101906106039190610bf5565b6107cb565b005b34801561061657600080fd5b5061061f610abe565b60405161062c9190610e16565b60405180910390f35b34801561064157600080fd5b5061064a610b4c565b6040516106579190610efa565b60405180910390f35b34801561066c57600080fd5b50610675610b52565b6040516106829190610efa565b60405180910390f35b34801561069757600080fd5b506106a0610b58565b6040516106ad9190610efa565b60405180910390f35b3480156106c257600080fd5b506106cb610b5e565b6040516106d89190610efa565b60405180910390f35b3480156106ed57600080fd5b506106f6610b64565b6040516107039190610efa565b60405180910390f35b34801561071857600080fd5b50610721610b6a565b60405161072e9190610efa565b60405180910390f35b34801561074357600080fd5b5061074c610b70565b6040516107599190610efa565b60405180910390f35b34801561076e57600080fd5b50610777610b76565b6040516107849190610dfb565b60405180910390f35b34801561079957600080fd5b506107b460048036038101906107af9190610bf5565b610b9c565b6040516107c2929190610f3e565b60405180910390f35b8060055414806107dd57506000600254145b156108b1576000479050600760009054906101000a900473ffffffffffffffffffffffffffffffffffffffff1673ffffffffffffffffffffffffffffffffffffffff166108fc479081150290604051600060405180830381858888f1935050505015801561084f573d6000803e3d6000fd5b507f8335b473adeb3018aef91e4a4bc45f20dcecf853f879db9eb743ac66997ac5f681600760009054906101000a900473ffffffffffffffffffffffffffffffffffffffff166040516108a3929190610f15565b60405180910390a150610abb565b60005b6002548110156109e6576000600960008381526020019081526020016000206000015490506064816108e69190611035565b9050600854816108f69190611035565b90506064816109059190611004565b90506064816109149190611004565b905060006009600084815260200190815260200160002060010160009054906101000a900473ffffffffffffffffffffffffffffffffffffffff1690508073ffffffffffffffffffffffffffffffffffffffff166108fc839081150290604051600060405180830381858888f19350505050158015610997573d6000803e3d6000fd5b507f8335b473adeb3018aef91e4a4bc45f20dcecf853f879db9eb743ac66997ac5f682826040516109c9929190610f15565b60405180910390a1505080806109de9061119a565b9150506108b4565b5060004714610aba576000479050600760009054906101000a900473ffffffffffffffffffffffffffffffffffffffff1673ffffffffffffffffffffffffffffffffffffffff166108fc479081150290604051600060405180830381858888f19350505050158015610a5c573d6000803e3d6000fd5b507f8335b473adeb3018aef91e4a4bc45f20dcecf853f879db9eb743ac66997ac5f681600760009054906101000a900473ffffffffffffffffffffffffffffffffffffffff16604051610ab0929190610f15565b60405180910390a1505b5b50565b60018054610acb90611168565b80601f0160208091040260200160405190810160405280929190818152602001828054610af790611168565b8015610b445780601f10610b1957610100808354040283529160200191610b44565b820191906000526020600020905b815481529060010190602001808311610b2757829003601f168201915b505050505081565b60025481565b60055481565b60045481565b60085481565b60005481565b60065481565b60035481565b600760009054906101000a900473ffffffffffffffffffffffffffffffffffffffff1681565b60096020528060005260406000206000915090508060000154908060010160009054906101000a900473ffffffffffffffffffffffffffffffffffffffff16905082565b600081359050610bef816113e6565b92915050565b600060208284031215610c0757600080fd5b6000610c1584828501610be0565b91505092915050565b610c27816110ff565b82525050565b610c36816110c3565b82525050565b6000610c4782610f7c565b610c518185610f92565b9350610c61818560208601611135565b80840191505092915050565b6000610c7882610f87565b610c828185610f9d565b9350610c92818560208601611135565b610c9b81611270565b840191505092915050565b60008154610cb381611168565b610cbd8186610f9d565b94506001821660008114610cd85760018114610cea57610d1d565b60ff1983168652602086019350610d1d565b610cf385610f67565b60005b83811015610d1557815481890152600182019150602081019050610cf6565b808801955050505b50505092915050565b6000610d33603483610f9d565b9150610d3e82611281565b604082019050919050565b6000610d56601c83610f9d565b9150610d61826112d0565b602082019050919050565b6000610d79602483610f9d565b9150610d84826112f9565b604082019050919050565b6000610d9c602983610f9d565b9150610da782611348565b604082019050919050565b6000610dbf602583610f9d565b9150610dca82611397565b604082019050919050565b610dde816110f5565b82525050565b6000610df08284610c3c565b915081905092915050565b6000602082019050610e106000830184610c2d565b92915050565b60006020820190508181036000830152610e308184610c6d565b905092915050565b60006020820190508181036000830152610e528184610ca6565b905092915050565b60006020820190508181036000830152610e7381610d26565b9050919050565b60006020820190508181036000830152610e9381610d49565b9050919050565b60006020820190508181036000830152610eb381610d6c565b9050919050565b60006020820190508181036000830152610ed381610d8f565b9050919050565b60006020820190508181036000830152610ef381610db2565b9050919050565b6000602082019050610f0f6000830184610dd5565b92915050565b6000604082019050610f2a6000830185610dd5565b610f376020830184610c1e565b9392505050565b6000604082019050610f536000830185610dd5565b610f606020830184610c2d565b9392505050565b60008190508160005260206000209050919050565b600081519050919050565b600081519050919050565b600081905092915050565b600082825260208201905092915050565b6000610fb9826110f5565b9150610fc4836110f5565b9250827fffffffffffffffffffffffffffffffffffffffffffffffffffffffffffffffff03821115610ff957610ff86111e3565b5b828201905092915050565b600061100f826110f5565b915061101a836110f5565b92508261102a57611029611212565b5b828204905092915050565b6000611040826110f5565b915061104b836110f5565b9250817fffffffffffffffffffffffffffffffffffffffffffffffffffffffffffffffff0483118215151615611084576110836111e3565b5b828202905092915050565b600061109a826110f5565b91506110a5836110f5565b9250828210156110b8576110b76111e3565b5b828203905092915050565b60006110ce826110d5565b9050919050565b600073ffffffffffffffffffffffffffffffffffffffff82169050919050565b6000819050919050565b600061110a82611111565b9050919050565b600061111c82611123565b9050919050565b600061112e826110d5565b9050919050565b60005b83811015611153578082015181840152602081019050611138565b83811115611162576000848401525b50505050565b6000600282049050600182168061118057607f821691505b6020821081141561119457611193611241565b5b50919050565b60006111a5826110f5565b91507fffffffffffffffffffffffffffffffffffffffffffffffffffffffffffffffff8214156111d8576111d76111e3565b5b600182019050919050565b7f4e487b7100000000000000000000000000000000000000000000000000000000600052601160045260246000fd5b7f4e487b7100000000000000000000000000000000000000000000000000000000600052601260045260246000fd5b7f4e487b7100000000000000000000000000000000000000000000000000000000600052602260045260246000fd5b6000601f19601f8301169050919050565b7f7468652076616c7565206f6620746865207472616e73616374696f6e206d757360008201527f7420626520657175616c20746f20627564676574000000000000000000000000602082015250565b7f506c61796572207061796d656e74206469646e27742061636365707400000000600082015250565b7f6f6e6c792063726561746f72206f6620636f6e74726163742063616e2066756e60008201527f6420697400000000000000000000000000000000000000000000000000000000602082015250565b7f596f752073656e74206d6f72652066756e6473207468616e20617661696c616260008201527f6c65206275646765740000000000000000000000000000000000000000000000602082015250565b7f66756e64696e67206f662074686520636f6e7472616374206469646e7420737560008201527f6363656564000000000000000000000000000000000000000000000000000000602082015250565b6113ef816110f5565b81146113fa57600080fd5b5056fea26469706673582212207f9d8239bebd5d4df0ace5ae0d5f7689ff0c105490c903fb5ee066956cadfa4864736f6c63430008010033",
  "immutableReferences": {},
  "source": "    //SPDX-License-Identifier: MIT\r\n    \r\n    pragma solidity 0.8.1;\r\n    \r\n    import \"./BetManager.sol\";\r\n    \r\n    contract Bet {\r\n    uint public paidWei;\r\n    string public index;\r\n    uint public playerIndex;\r\n    uint public creatorBudget;\r\n    uint public gameDate;\r\n    uint public creatorChoice;\r\n    uint public playersBudget;\r\n    address payable public creatorAddress;\r\n    uint public ratio;\r\n    \r\n    struct S_Player {\r\n        uint _playerBetAmount;\r\n        address payable _playerAddress;\r\n    }\r\n    \r\n    mapping(uint => S_Player) public players;\r\n\r\n    BetManager parentContract;\r\n    \r\n    event BetSpread(uint _amount, address _address);\r\n    event playerPayment(uint _amou ,address _addr);\r\n    \r\n    constructor(BetManager _parentContract, address payable _creatorAddress, uint _creatorBudget, string memory _index, uint _ratio,\r\n                  uint _gameDate, uint _creatorChoice, uint _playersBudget) {\r\n                \r\n        index = _index;\r\n        creatorBudget = _creatorBudget;\r\n        ratio = _ratio;\r\n        gameDate = _gameDate;\r\n        creatorChoice = _creatorChoice;\r\n        playersBudget = _playersBudget;\r\n        parentContract = _parentContract;\r\n        creatorAddress = _creatorAddress;\r\n        \r\n    }\r\n    \r\n    function finishContract(uint _choice) public {\r\n        if (creatorChoice == _choice || playerIndex == 0){\r\n            uint amount = address(this).balance;\r\n            creatorAddress.transfer(address(this).balance);\r\n            emit BetSpread(amount , creatorAddress);\r\n        }\r\n        else {\r\n            for (uint i = 0; i < playerIndex; i++){\r\n               uint playerWinAmount = players[i]._playerBetAmount;\r\n               playerWinAmount = playerWinAmount*100;\r\n               playerWinAmount = playerWinAmount*ratio;\r\n               playerWinAmount = playerWinAmount/100;\r\n               playerWinAmount = playerWinAmount/100;\r\n               address payable playerAddress = players[i]._playerAddress;\r\n               playerAddress.transfer(playerWinAmount);\r\n               emit BetSpread(playerWinAmount , playerAddress);\r\n            }\r\n            if (address(this).balance != 0){\r\n            uint creatorRefund = address(this).balance;    \r\n            creatorAddress.transfer(address(this).balance);\r\n            emit BetSpread(creatorRefund , creatorAddress);                \r\n            }\r\n        }\r\n    } \r\n    \r\n    \r\n    receive() external payable {\r\n        if (paidWei == 0) {\r\n            require(msg.sender == creatorAddress , \"only creator of contract can fund it\");\r\n            require(msg.value == creatorBudget, \"the value of the transaction must be equal to budget\");\r\n            (bool success,) = address(parentContract).call(abi.encodeWithSignature(\"triggerCreatorPayment(uint256)\", index));\r\n            require(success, \"funding of the contract didnt succeed\");\r\n                        paidWei += msg.value;\r\n        }\r\n        else {\r\n            require(msg.value <= playersBudget, \"You sent more funds than available budget\");\r\n            (bool success, ) = address(parentContract).call(abi.encodeWithSignature(\"triggerPlayerPayment(uint256)\", index));\r\n            require(success, \"Player payment didn't accept\");\r\n            playersBudget -= msg.value;\r\n            players[playerIndex]._playerBetAmount = msg.value;\r\n            players[playerIndex]._playerAddress = payable(msg.sender);\r\n            emit playerPayment(players[playerIndex]._playerBetAmount, players[playerIndex]._playerAddress);\r\n            playerIndex++;\r\n        }\r\n\r\n        \r\n    }\r\n    \r\n    fallback () external {\r\n    \r\n     }\r\n    \r\n    }\r\n",
  "sourcePath": "C:\\Users\\prono\\OneDrive\\Desktop\\material-dashboard-react-main\\contracts\\Bet.sol",
  "compiler": {
    "name": "solc",
    "version": "0.8.1+commit.df193b15.Emscripten.clang"
  },
  "schemaVersion": "3.4.3",
  "updatedAt": "2021-09-12T22:36:18.050Z",
  "devdoc": {
    "kind": "dev",
    "methods": {},
    "version": 1
  },
  "userdoc": {
    "kind": "user",
    "methods": {},
    "version": 1
  }
}