{
  "contractName": "BetManager",
  "abi": [
    {
      "anonymous": false,
      "inputs": [
        {
          "indexed": false,
          "internalType": "string",
          "name": "_Index",
          "type": "string"
        },
        {
          "indexed": false,
          "internalType": "uint256",
          "name": "_step",
          "type": "uint256"
        },
        {
          "indexed": false,
          "internalType": "address",
          "name": "_address",
          "type": "address"
        }
      ],
      "name": "BetStep",
      "type": "event"
    },
    {
      "anonymous": false,
      "inputs": [
        {
          "indexed": true,
          "internalType": "address",
          "name": "previousOwner",
          "type": "address"
        },
        {
          "indexed": true,
          "internalType": "address",
          "name": "newOwner",
          "type": "address"
        }
      ],
      "name": "OwnershipTransferred",
      "type": "event"
    },
    {
      "stateMutability": "nonpayable",
      "type": "fallback"
    },
    {
      "inputs": [
        {
          "internalType": "string",
          "name": "",
          "type": "string"
        }
      ],
      "name": "bets",
      "outputs": [
        {
          "internalType": "contract Bet",
          "name": "_bet",
          "type": "address"
        },
        {
          "internalType": "enum BetManager.BetSteps",
          "name": "_step",
          "type": "uint8"
        }
      ],
      "stateMutability": "view",
      "type": "function",
      "constant": true
    },
    {
      "inputs": [],
      "name": "owner",
      "outputs": [
        {
          "internalType": "address",
          "name": "",
          "type": "address"
        }
      ],
      "stateMutability": "view",
      "type": "function",
      "constant": true
    },
    {
      "inputs": [],
      "name": "renounceOwnership",
      "outputs": [],
      "stateMutability": "nonpayable",
      "type": "function"
    },
    {
      "inputs": [
        {
          "internalType": "address",
          "name": "newOwner",
          "type": "address"
        }
      ],
      "name": "transferOwnership",
      "outputs": [],
      "stateMutability": "nonpayable",
      "type": "function"
    },
    {
      "inputs": [
        {
          "internalType": "address payable",
          "name": "_creatorAddress",
          "type": "address"
        },
        {
          "internalType": "uint256",
          "name": "_creatorBudget",
          "type": "uint256"
        },
        {
          "internalType": "uint256",
          "name": "_ratio",
          "type": "uint256"
        },
        {
          "internalType": "uint256",
          "name": "_gameDate",
          "type": "uint256"
        },
        {
          "internalType": "uint256",
          "name": "_creatorChoice",
          "type": "uint256"
        },
        {
          "internalType": "uint256",
          "name": "_playersBudget",
          "type": "uint256"
        },
        {
          "internalType": "string",
          "name": "_index",
          "type": "string"
        }
      ],
      "name": "createBet",
      "outputs": [],
      "stateMutability": "nonpayable",
      "type": "function"
    },
    {
      "inputs": [
        {
          "internalType": "string",
          "name": "_index",
          "type": "string"
        }
      ],
      "name": "triggerCreatorPayment",
      "outputs": [],
      "stateMutability": "nonpayable",
      "type": "function"
    },
    {
      "inputs": [
        {
          "internalType": "string",
          "name": "_index",
          "type": "string"
        }
      ],
      "name": "triggerPlayerPayment",
      "outputs": [],
      "stateMutability": "nonpayable",
      "type": "function"
    },
    {
      "inputs": [
        {
          "internalType": "string",
          "name": "_index",
          "type": "string"
        },
        {
          "internalType": "uint256",
          "name": "_choice",
          "type": "uint256"
        }
      ],
      "name": "triggerContractFinished",
      "outputs": [],
      "stateMutability": "nonpayable",
      "type": "function"
    }
  ],
  "bytecode": "0x608060405234801561001057600080fd5b5061002d61002261003260201b60201c565b61003a60201b60201c565b6100fe565b600033905090565b60008060009054906101000a900473ffffffffffffffffffffffffffffffffffffffff169050816000806101000a81548173ffffffffffffffffffffffffffffffffffffffff021916908373ffffffffffffffffffffffffffffffffffffffff1602179055508173ffffffffffffffffffffffffffffffffffffffff168173ffffffffffffffffffffffffffffffffffffffff167f8be0079c531659141344cd1fd0a4f28419497f9722a3daafe3b4186f6b6457e060405160405180910390a35050565b613787806200010e6000396000f3fe60806040523480156200001157600080fd5b5060043610620000995760003560e01c80638da5cb5b11620000635780638da5cb5b146200011f5780639488b40d1462000141578063cd8a72001462000161578063f2fde38b1462000181576200009a565b8063031ac97f146200009c57806312346bd814620000bc578063715018a614620000dc57806380f3d9d514620000e8576200009a565b5b005b620000ba6004803603810190620000b49190620012c8565b620001a1565b005b620000da6004803603810190620000d491906200138e565b6200038e565b005b620000e6620008aa565b005b6200010660048036038101906200010091906200138e565b6200093b565b60405162000116929190620017f5565b60405180910390f35b62000129620009a2565b60405162000138919062001743565b60405180910390f35b6200015f60048036038101906200015991906200138e565b620009cb565b005b6200017f6004803603810190620001799190620013d3565b62000d2e565b005b6200019f60048036038101906200019991906200129c565b62000f40565b005b60003088888489898989604051620001b99062001110565b620001cc98979695949392919062001760565b604051809103906000f080158015620001e9573d6000803e3d6000fd5b5090508160029080519060200190620002049291906200111e565b5080600160026040516200021991906200172a565b908152602001604051809103902060000160006101000a81548173ffffffffffffffffffffffffffffffffffffffff021916908373ffffffffffffffffffffffffffffffffffffffff1602179055506000600160026040516200027d91906200172a565b908152602001604051809103902060000160146101000a81548160ff02191690836003811115620002d7577f4e487b7100000000000000000000000000000000000000000000000000000000600052602160045260246000fd5b02179055507f7b9e085de804f786537f0e86cf77e2c2f242f72ebe5e186496883bd8ae46c9ff6002600160026040516200031291906200172a565b908152602001604051809103902060000160149054906101000a900460ff1660038111156200036a577f4e487b7100000000000000000000000000000000000000000000000000000000600052602160045260246000fd5b836040516200037c9392919062001866565b60405180910390a15050505050505050565b6000600182604051620003a2919062001711565b908152602001604051809103902060000160009054906101000a900473ffffffffffffffffffffffffffffffffffffffff16905060004290503373ffffffffffffffffffffffffffffffffffffffff168273ffffffffffffffffffffffffffffffffffffffff16146200044c576040517f08c379a00000000000000000000000000000000000000000000000000000000081526004016200044390620018cc565b60405180910390fd5b6001600381111562000487577f4e487b7100000000000000000000000000000000000000000000000000000000600052602160045260246000fd5b60018460405162000499919062001711565b908152602001604051809103902060000160149054906101000a900460ff166003811115620004f1577f4e487b7100000000000000000000000000000000000000000000000000000000600052602160045260246000fd5b1480620005a057506002600381111562000534577f4e487b7100000000000000000000000000000000000000000000000000000000600052602160045260246000fd5b60018460405162000546919062001711565b908152602001604051809103902060000160149054906101000a900460ff1660038111156200059e577f4e487b7100000000000000000000000000000000000000000000000000000000600052602160045260246000fd5b145b620005e2576040517f08c379a0000000000000000000000000000000000000000000000000000000008152600401620005d990620018aa565b60405180910390fd5b8173ffffffffffffffffffffffffffffffffffffffff16636d1d92476040518163ffffffff1660e01b815260040160206040518083038186803b1580156200062957600080fd5b505afa1580156200063e573d6000803e3d6000fd5b505050506040513d601f19601f820116820180604052508101906200066491906200142d565b8111156200078b57600360018460405162000680919062001711565b908152602001604051809103902060000160146101000a81548160ff02191690836003811115620006da577f4e487b7100000000000000000000000000000000000000000000000000000000600052602160045260246000fd5b02179055507f7b9e085de804f786537f0e86cf77e2c2f242f72ebe5e186496883bd8ae46c9ff8360018560405162000713919062001711565b908152602001604051809103902060000160149054906101000a900460ff1660038111156200076b577f4e487b7100000000000000000000000000000000000000000000000000000000600052602160045260246000fd5b846040516200077d9392919062001822565b60405180910390a1620008a5565b60026001846040516200079f919062001711565b908152602001604051809103902060000160146101000a81548160ff02191690836003811115620007f9577f4e487b7100000000000000000000000000000000000000000000000000000000600052602160045260246000fd5b02179055507f7b9e085de804f786537f0e86cf77e2c2f242f72ebe5e186496883bd8ae46c9ff8360018560405162000832919062001711565b908152602001604051809103902060000160149054906101000a900460ff1660038111156200088a577f4e487b7100000000000000000000000000000000000000000000000000000000600052602160045260246000fd5b846040516200089c9392919062001822565b60405180910390a15b505050565b620008b462001044565b73ffffffffffffffffffffffffffffffffffffffff16620008d4620009a2565b73ffffffffffffffffffffffffffffffffffffffff16146200092d576040517f08c379a0000000000000000000000000000000000000000000000000000000008152600401620009249062001910565b60405180910390fd5b6200093960006200104c565b565b6001818051602081018201805184825260208301602085012081835280955050505050506000915090508060000160009054906101000a900473ffffffffffffffffffffffffffffffffffffffff16908060000160149054906101000a900460ff16905082565b60008060009054906101000a900473ffffffffffffffffffffffffffffffffffffffff16905090565b6000600182604051620009df919062001711565b908152602001604051809103902060000160009054906101000a900473ffffffffffffffffffffffffffffffffffffffff1690507f7b9e085de804f786537f0e86cf77e2c2f242f72ebe5e186496883bd8ae46c9ff8260018460405162000a47919062001711565b908152602001604051809103902060000160149054906101000a900460ff16600381111562000a9f577f4e487b7100000000000000000000000000000000000000000000000000000000600052602160045260246000fd5b8360405162000ab19392919062001822565b60405180910390a13373ffffffffffffffffffffffffffffffffffffffff168173ffffffffffffffffffffffffffffffffffffffff161462000b2a576040517f08c379a000000000000000000000000000000000000000000000000000000000815260040162000b2190620018cc565b60405180910390fd5b6000600381111562000b65577f4e487b7100000000000000000000000000000000000000000000000000000000600052602160045260246000fd5b60018360405162000b77919062001711565b908152602001604051809103902060000160149054906101000a900460ff16600381111562000bcf577f4e487b7100000000000000000000000000000000000000000000000000000000600052602160045260246000fd5b1462000c12576040517f08c379a000000000000000000000000000000000000000000000000000000000815260040162000c099062001932565b60405180910390fd5b6001808360405162000c25919062001711565b908152602001604051809103902060000160146101000a81548160ff0219169083600381111562000c7f577f4e487b7100000000000000000000000000000000000000000000000000000000600052602160045260246000fd5b02179055507f7b9e085de804f786537f0e86cf77e2c2f242f72ebe5e186496883bd8ae46c9ff8260018460405162000cb8919062001711565b908152602001604051809103902060000160149054906101000a900460ff16600381111562000d10577f4e487b7100000000000000000000000000000000000000000000000000000000600052602160045260246000fd5b8360405162000d229392919062001822565b60405180910390a15050565b600360018360405162000d42919062001711565b908152602001604051809103902060000160146101000a81548160ff0219169083600381111562000d9c577f4e487b7100000000000000000000000000000000000000000000000000000000600052602160045260246000fd5b021790555060018260405162000db3919062001711565b908152602001604051809103902060000160009054906101000a900473ffffffffffffffffffffffffffffffffffffffff1673ffffffffffffffffffffffffffffffffffffffff166303290a4a826040518263ffffffff1660e01b815260040162000e1f919062001954565b600060405180830381600087803b15801562000e3a57600080fd5b505af115801562000e4f573d6000803e3d6000fd5b505050507f7b9e085de804f786537f0e86cf77e2c2f242f72ebe5e186496883bd8ae46c9ff8260018460405162000e87919062001711565b908152602001604051809103902060000160149054906101000a900460ff16600381111562000edf577f4e487b7100000000000000000000000000000000000000000000000000000000600052602160045260246000fd5b60018560405162000ef1919062001711565b908152602001604051809103902060000160009054906101000a900473ffffffffffffffffffffffffffffffffffffffff1660405162000f349392919062001822565b60405180910390a15050565b62000f4a62001044565b73ffffffffffffffffffffffffffffffffffffffff1662000f6a620009a2565b73ffffffffffffffffffffffffffffffffffffffff161462000fc3576040517f08c379a000000000000000000000000000000000000000000000000000000000815260040162000fba9062001910565b60405180910390fd5b600073ffffffffffffffffffffffffffffffffffffffff168173ffffffffffffffffffffffffffffffffffffffff16141562001036576040517f08c379a00000000000000000000000000000000000000000000000000000000081526004016200102d90620018ee565b60405180910390fd5b62001041816200104c565b50565b600033905090565b60008060009054906101000a900473ffffffffffffffffffffffffffffffffffffffff169050816000806101000a81548173ffffffffffffffffffffffffffffffffffffffff021916908373ffffffffffffffffffffffffffffffffffffffff1602179055508173ffffffffffffffffffffffffffffffffffffffff168173ffffffffffffffffffffffffffffffffffffffff167f8be0079c531659141344cd1fd0a4f28419497f9722a3daafe3b4186f6b6457e060405160405180910390a35050565b6119ad8062001da583390190565b8280546200112c9062001b1c565b90600052602060002090601f0160209004810192826200115057600085556200119c565b82601f106200116b57805160ff19168380011785556200119c565b828001600101855582156200119c579182015b828111156200119b5782518255916020019190600101906200117e565b5b509050620011ab9190620011af565b5090565b5b80821115620011ca576000816000905550600101620011b0565b5090565b6000620011e5620011df846200199a565b62001971565b905082815260208101848484011115620011fe57600080fd5b6200120b84828562001ad7565b509392505050565b600081359050620012248162001d56565b92915050565b6000813590506200123b8162001d70565b92915050565b600082601f8301126200125357600080fd5b813562001265848260208601620011ce565b91505092915050565b6000813590506200127f8162001d8a565b92915050565b600081519050620012968162001d8a565b92915050565b600060208284031215620012af57600080fd5b6000620012bf8482850162001213565b91505092915050565b600080600080600080600060e0888a031215620012e457600080fd5b6000620012f48a828b016200122a565b9750506020620013078a828b016200126e565b96505060406200131a8a828b016200126e565b95505060606200132d8a828b016200126e565b9450506080620013408a828b016200126e565b93505060a0620013538a828b016200126e565b92505060c088013567ffffffffffffffff8111156200137157600080fd5b6200137f8a828b0162001241565b91505092959891949750929550565b600060208284031215620013a157600080fd5b600082013567ffffffffffffffff811115620013bc57600080fd5b620013ca8482850162001241565b91505092915050565b60008060408385031215620013e757600080fd5b600083013567ffffffffffffffff8111156200140257600080fd5b620014108582860162001241565b925050602062001423858286016200126e565b9150509250929050565b6000602082840312156200144057600080fd5b6000620014508482850162001285565b91505092915050565b620014648162001a20565b82525050565b620014758162001a0c565b82525050565b620014868162001a73565b82525050565b620014978162001a9b565b82525050565b620014a88162001ac3565b82525050565b6000620014bb82620019e5565b620014c78185620019f0565b9350620014d981856020860162001ae6565b620014e48162001c15565b840191505092915050565b6000620014fc82620019e5565b62001508818562001a01565b93506200151a81856020860162001ae6565b80840191505092915050565b60008154620015358162001b1c565b620015418186620019f0565b945060018216600081146200155f57600181146200157257620015a9565b60ff1983168652602086019350620015a9565b6200157d85620019d0565b60005b83811015620015a15781548189015260018201915060208101905062001580565b808801955050505b50505092915050565b60008154620015c18162001b1c565b620015cd818662001a01565b94506001821660008114620015eb5760018114620015fd5762001634565b60ff1983168652818601935062001634565b6200160885620019d0565b60005b838110156200162c578154818901526001820191506020810190506200160b565b838801955050505b50505092915050565b60006200164c600f83620019f0565b9150620016598262001c26565b602082019050919050565b600062001673602a83620019f0565b9150620016808262001c4f565b604082019050919050565b60006200169a602683620019f0565b9150620016a78262001c9e565b604082019050919050565b6000620016c1602083620019f0565b9150620016ce8262001ced565b602082019050919050565b6000620016e8601883620019f0565b9150620016f58262001d16565b602082019050919050565b6200170b8162001a69565b82525050565b60006200171f8284620014ef565b915081905092915050565b6000620017388284620015b2565b915081905092915050565b60006020820190506200175a60008301846200146a565b92915050565b60006101008201905062001778600083018b6200147b565b62001787602083018a62001459565b62001796604083018962001700565b8181036060830152620017aa8188620014ae565b9050620017bb608083018762001700565b620017ca60a083018662001700565b620017d960c083018562001700565b620017e860e083018462001700565b9998505050505050505050565b60006040820190506200180c60008301856200148c565b6200181b60208301846200149d565b9392505050565b600060608201905081810360008301526200183e8186620014ae565b90506200184f602083018562001700565b6200185e60408301846200146a565b949350505050565b6000606082019050818103600083015262001882818662001526565b905062001893602083018562001700565b620018a260408301846200146a565b949350505050565b60006020820190508181036000830152620018c5816200163d565b9050919050565b60006020820190508181036000830152620018e78162001664565b9050919050565b6000602082019050818103600083015262001909816200168b565b9050919050565b600060208201905081810360008301526200192b81620016b2565b9050919050565b600060208201905081810360008301526200194d81620016d9565b9050919050565b60006020820190506200196b600083018462001700565b92915050565b60006200197d62001990565b90506200198b828262001b52565b919050565b6000604051905090565b600067ffffffffffffffff821115620019b857620019b762001be6565b5b620019c38262001c15565b9050602081019050919050565b60008190508160005260206000209050919050565b600081519050919050565b600082825260208201905092915050565b600081905092915050565b600062001a198262001a49565b9050919050565b600062001a2d8262001a49565b9050919050565b600081905062001a448262001d3f565b919050565b600073ffffffffffffffffffffffffffffffffffffffff82169050919050565b6000819050919050565b600062001a808262001a87565b9050919050565b600062001a948262001a49565b9050919050565b600062001aa88262001aaf565b9050919050565b600062001abc8262001a49565b9050919050565b600062001ad08262001a34565b9050919050565b82818337600083830152505050565b60005b8381101562001b0657808201518184015260208101905062001ae9565b8381111562001b16576000848401525b50505050565b6000600282049050600182168062001b3557607f821691505b6020821081141562001b4c5762001b4b62001bb7565b5b50919050565b62001b5d8262001c15565b810181811067ffffffffffffffff8211171562001b7f5762001b7e62001be6565b5b80604052505050565b7f4e487b7100000000000000000000000000000000000000000000000000000000600052602160045260246000fd5b7f4e487b7100000000000000000000000000000000000000000000000000000000600052602260045260246000fd5b7f4e487b7100000000000000000000000000000000000000000000000000000000600052604160045260246000fd5b6000601f19601f8301169050919050565b7f626574206973206e6f74206f70656e0000000000000000000000000000000000600082015250565b7f4f6e6c7920626574732061726520616c6c6f77656420746f207570646174652060008201527f7468656d73656c76657300000000000000000000000000000000000000000000602082015250565b7f4f776e61626c653a206e6577206f776e657220697320746865207a65726f206160008201527f6464726573730000000000000000000000000000000000000000000000000000602082015250565b7f4f776e61626c653a2063616c6c6572206973206e6f7420746865206f776e6572600082015250565b7f62657420697320616c726561647920696e697469617465640000000000000000600082015250565b6004811062001d535762001d5262001b88565b5b50565b62001d618162001a0c565b811462001d6d57600080fd5b50565b62001d7b8162001a20565b811462001d8757600080fd5b50565b62001d958162001a69565b811462001da157600080fd5b5056fe60806040523480156200001157600080fd5b50604051620019ad380380620019ad83398181016040528101906200003791906200026a565b84600190805190602001906200004f92919062000103565b50856003819055508360088190555082600481905550816005819055508060068190555087600a60006101000a81548173ffffffffffffffffffffffffffffffffffffffff021916908373ffffffffffffffffffffffffffffffffffffffff16021790555086600760006101000a81548173ffffffffffffffffffffffffffffffffffffffff021916908373ffffffffffffffffffffffffffffffffffffffff16021790555050505050505050506200056a565b828054620001119062000441565b90600052602060002090601f01602090048101928262000135576000855562000181565b82601f106200015057805160ff191683800117855562000181565b8280016001018555821562000181579182015b828111156200018057825182559160200191906001019062000163565b5b50905062000190919062000194565b5090565b5b80821115620001af57600081600090555060010162000195565b5090565b6000620001ca620001c4846200036f565b62000346565b905082815260208101848484011115620001e357600080fd5b620001f08482856200040b565b509392505050565b60008151905062000209816200051c565b92915050565b600081519050620002208162000536565b92915050565b600082601f8301126200023857600080fd5b81516200024a848260208601620001b3565b91505092915050565b600081519050620002648162000550565b92915050565b600080600080600080600080610100898b0312156200028857600080fd5b6000620002988b828c016200020f565b9850506020620002ab8b828c01620001f8565b9750506040620002be8b828c0162000253565b965050606089015167ffffffffffffffff811115620002dc57600080fd5b620002ea8b828c0162000226565b9550506080620002fd8b828c0162000253565b94505060a0620003108b828c0162000253565b93505060c0620003238b828c0162000253565b92505060e0620003368b828c0162000253565b9150509295985092959890939650565b60006200035262000365565b905062000360828262000477565b919050565b6000604051905090565b600067ffffffffffffffff8211156200038d576200038c620004dc565b5b62000398826200050b565b9050602081019050919050565b6000620003b282620003e1565b9050919050565b6000620003c682620003e1565b9050919050565b6000620003da82620003a5565b9050919050565b600073ffffffffffffffffffffffffffffffffffffffff82169050919050565b6000819050919050565b60005b838110156200042b5780820151818401526020810190506200040e565b838111156200043b576000848401525b50505050565b600060028204905060018216806200045a57607f821691505b60208210811415620004715762000470620004ad565b5b50919050565b62000482826200050b565b810181811067ffffffffffffffff82111715620004a457620004a3620004dc565b5b80604052505050565b7f4e487b7100000000000000000000000000000000000000000000000000000000600052602260045260246000fd5b7f4e487b7100000000000000000000000000000000000000000000000000000000600052604160045260246000fd5b6000601f19601f8301169050919050565b6200052781620003b9565b81146200053357600080fd5b50565b6200054181620003cd565b81146200054d57600080fd5b50565b6200055b8162000401565b81146200056757600080fd5b50565b611433806200057a6000396000f3fe6080604052600436106100a05760003560e01c806371ca337d1161006457806371ca337d146106b657806383d12eef146106e1578063b32a42ef1461070c578063c19f32e214610737578063e927fc5c14610762578063f71d96cb1461078d576105d2565b806303290a4a146105e15780632986c0e51461060a5780633ac3f524146106355780634095ba25146106605780636d1d92471461068b576105d2565b366105d2576000805414156102fe57600760009054906101000a900473ffffffffffffffffffffffffffffffffffffffff1673ffffffffffffffffffffffffffffffffffffffff163373ffffffffffffffffffffffffffffffffffffffff161461013f576040517f08c379a000000000000000000000000000000000000000000000000000000000815260040161013690610e9a565b60405180910390fd5b6003543414610183576040517f08c379a000000000000000000000000000000000000000000000000000000000815260040161017a90610e5a565b60405180910390fd5b6000600a60009054906101000a900473ffffffffffffffffffffffffffffffffffffffff1673ffffffffffffffffffffffffffffffffffffffff1660016040516024016101d09190610e38565b6040516020818303038152906040527f4b810214000000000000000000000000000000000000000000000000000000007bffffffffffffffffffffffffffffffffffffffffffffffffffffffff19166020820180517bffffffffffffffffffffffffffffffffffffffffffffffffffffffff838183161783525050505060405161025a9190610de4565b6000604051808303816000865af19150503d8060008114610297576040519150601f19603f3d011682016040523d82523d6000602084013e61029c565b606091505b50509050806102e0576040517f08c379a00000000000000000000000000000000000000000000000000000000081526004016102d790610eda565b60405180910390fd5b346000808282546102f19190610fae565b92505081905550506105d0565b600654341115610343576040517f08c379a000000000000000000000000000000000000000000000000000000000815260040161033a90610eba565b60405180910390fd5b6000600a60009054906101000a900473ffffffffffffffffffffffffffffffffffffffff1673ffffffffffffffffffffffffffffffffffffffff1660016040516024016103909190610e38565b6040516020818303038152906040527f4bbf5f2d000000000000000000000000000000000000000000000000000000007bffffffffffffffffffffffffffffffffffffffffffffffffffffffff19166020820180517bffffffffffffffffffffffffffffffffffffffffffffffffffffffff838183161783525050505060405161041a9190610de4565b6000604051808303816000865af19150503d8060008114610457576040519150601f19603f3d011682016040523d82523d6000602084013e61045c565b606091505b50509050806104a0576040517f08c379a000000000000000000000000000000000000000000000000000000000815260040161049790610e7a565b60405180910390fd5b34600660008282546104b2919061108f565b9250508190555034600960006002548152602001908152602001600020600001819055503360096000600254815260200190815260200160002060010160006101000a81548173ffffffffffffffffffffffffffffffffffffffff021916908373ffffffffffffffffffffffffffffffffffffffff1602179055507ff7bc3e30413da686cd0484ecc41d28a31565deae5609d1dc404c6816d4b148276009600060025481526020019081526020016000206000015460096000600254815260200190815260200160002060010160009054906101000a900473ffffffffffffffffffffffffffffffffffffffff166040516105ae929190610f15565b60405180910390a1600260008154809291906105c99061119a565b9190505550505b005b3480156105de57600080fd5b50005b3480156105ed57600080fd5b5061060860048036038101906106039190610bf5565b6107cb565b005b34801561061657600080fd5b5061061f610abe565b60405161062c9190610e16565b60405180910390f35b34801561064157600080fd5b5061064a610b4c565b6040516106579190610efa565b60405180910390f35b34801561066c57600080fd5b50610675610b52565b6040516106829190610efa565b60405180910390f35b34801561069757600080fd5b506106a0610b58565b6040516106ad9190610efa565b60405180910390f35b3480156106c257600080fd5b506106cb610b5e565b6040516106d89190610efa565b60405180910390f35b3480156106ed57600080fd5b506106f6610b64565b6040516107039190610efa565b60405180910390f35b34801561071857600080fd5b50610721610b6a565b60405161072e9190610efa565b60405180910390f35b34801561074357600080fd5b5061074c610b70565b6040516107599190610efa565b60405180910390f35b34801561076e57600080fd5b50610777610b76565b6040516107849190610dfb565b60405180910390f35b34801561079957600080fd5b506107b460048036038101906107af9190610bf5565b610b9c565b6040516107c2929190610f3e565b60405180910390f35b8060055414806107dd57506000600254145b156108b1576000479050600760009054906101000a900473ffffffffffffffffffffffffffffffffffffffff1673ffffffffffffffffffffffffffffffffffffffff166108fc479081150290604051600060405180830381858888f1935050505015801561084f573d6000803e3d6000fd5b507f8335b473adeb3018aef91e4a4bc45f20dcecf853f879db9eb743ac66997ac5f681600760009054906101000a900473ffffffffffffffffffffffffffffffffffffffff166040516108a3929190610f15565b60405180910390a150610abb565b60005b6002548110156109e6576000600960008381526020019081526020016000206000015490506064816108e69190611035565b9050600854816108f69190611035565b90506064816109059190611004565b90506064816109149190611004565b905060006009600084815260200190815260200160002060010160009054906101000a900473ffffffffffffffffffffffffffffffffffffffff1690508073ffffffffffffffffffffffffffffffffffffffff166108fc839081150290604051600060405180830381858888f19350505050158015610997573d6000803e3d6000fd5b507f8335b473adeb3018aef91e4a4bc45f20dcecf853f879db9eb743ac66997ac5f682826040516109c9929190610f15565b60405180910390a1505080806109de9061119a565b9150506108b4565b5060004714610aba576000479050600760009054906101000a900473ffffffffffffffffffffffffffffffffffffffff1673ffffffffffffffffffffffffffffffffffffffff166108fc479081150290604051600060405180830381858888f19350505050158015610a5c573d6000803e3d6000fd5b507f8335b473adeb3018aef91e4a4bc45f20dcecf853f879db9eb743ac66997ac5f681600760009054906101000a900473ffffffffffffffffffffffffffffffffffffffff16604051610ab0929190610f15565b60405180910390a1505b5b50565b60018054610acb90611168565b80601f0160208091040260200160405190810160405280929190818152602001828054610af790611168565b8015610b445780601f10610b1957610100808354040283529160200191610b44565b820191906000526020600020905b815481529060010190602001808311610b2757829003601f168201915b505050505081565b60025481565b60055481565b60045481565b60085481565b60005481565b60065481565b60035481565b600760009054906101000a900473ffffffffffffffffffffffffffffffffffffffff1681565b60096020528060005260406000206000915090508060000154908060010160009054906101000a900473ffffffffffffffffffffffffffffffffffffffff16905082565b600081359050610bef816113e6565b92915050565b600060208284031215610c0757600080fd5b6000610c1584828501610be0565b91505092915050565b610c27816110ff565b82525050565b610c36816110c3565b82525050565b6000610c4782610f7c565b610c518185610f92565b9350610c61818560208601611135565b80840191505092915050565b6000610c7882610f87565b610c828185610f9d565b9350610c92818560208601611135565b610c9b81611270565b840191505092915050565b60008154610cb381611168565b610cbd8186610f9d565b94506001821660008114610cd85760018114610cea57610d1d565b60ff1983168652602086019350610d1d565b610cf385610f67565b60005b83811015610d1557815481890152600182019150602081019050610cf6565b808801955050505b50505092915050565b6000610d33603483610f9d565b9150610d3e82611281565b604082019050919050565b6000610d56601c83610f9d565b9150610d61826112d0565b602082019050919050565b6000610d79602483610f9d565b9150610d84826112f9565b604082019050919050565b6000610d9c602983610f9d565b9150610da782611348565b604082019050919050565b6000610dbf602583610f9d565b9150610dca82611397565b604082019050919050565b610dde816110f5565b82525050565b6000610df08284610c3c565b915081905092915050565b6000602082019050610e106000830184610c2d565b92915050565b60006020820190508181036000830152610e308184610c6d565b905092915050565b60006020820190508181036000830152610e528184610ca6565b905092915050565b60006020820190508181036000830152610e7381610d26565b9050919050565b60006020820190508181036000830152610e9381610d49565b9050919050565b60006020820190508181036000830152610eb381610d6c565b9050919050565b60006020820190508181036000830152610ed381610d8f565b9050919050565b60006020820190508181036000830152610ef381610db2565b9050919050565b6000602082019050610f0f6000830184610dd5565b92915050565b6000604082019050610f2a6000830185610dd5565b610f376020830184610c1e565b9392505050565b6000604082019050610f536000830185610dd5565b610f606020830184610c2d565b9392505050565b60008190508160005260206000209050919050565b600081519050919050565b600081519050919050565b600081905092915050565b600082825260208201905092915050565b6000610fb9826110f5565b9150610fc4836110f5565b9250827fffffffffffffffffffffffffffffffffffffffffffffffffffffffffffffffff03821115610ff957610ff86111e3565b5b828201905092915050565b600061100f826110f5565b915061101a836110f5565b92508261102a57611029611212565b5b828204905092915050565b6000611040826110f5565b915061104b836110f5565b9250817fffffffffffffffffffffffffffffffffffffffffffffffffffffffffffffffff0483118215151615611084576110836111e3565b5b828202905092915050565b600061109a826110f5565b91506110a5836110f5565b9250828210156110b8576110b76111e3565b5b828203905092915050565b60006110ce826110d5565b9050919050565b600073ffffffffffffffffffffffffffffffffffffffff82169050919050565b6000819050919050565b600061110a82611111565b9050919050565b600061111c82611123565b9050919050565b600061112e826110d5565b9050919050565b60005b83811015611153578082015181840152602081019050611138565b83811115611162576000848401525b50505050565b6000600282049050600182168061118057607f821691505b6020821081141561119457611193611241565b5b50919050565b60006111a5826110f5565b91507fffffffffffffffffffffffffffffffffffffffffffffffffffffffffffffffff8214156111d8576111d76111e3565b5b600182019050919050565b7f4e487b7100000000000000000000000000000000000000000000000000000000600052601160045260246000fd5b7f4e487b7100000000000000000000000000000000000000000000000000000000600052601260045260246000fd5b7f4e487b7100000000000000000000000000000000000000000000000000000000600052602260045260246000fd5b6000601f19601f8301169050919050565b7f7468652076616c7565206f6620746865207472616e73616374696f6e206d757360008201527f7420626520657175616c20746f20627564676574000000000000000000000000602082015250565b7f506c61796572207061796d656e74206469646e27742061636365707400000000600082015250565b7f6f6e6c792063726561746f72206f6620636f6e74726163742063616e2066756e60008201527f6420697400000000000000000000000000000000000000000000000000000000602082015250565b7f596f752073656e74206d6f72652066756e6473207468616e20617661696c616260008201527f6c65206275646765740000000000000000000000000000000000000000000000602082015250565b7f66756e64696e67206f662074686520636f6e7472616374206469646e7420737560008201527f6363656564000000000000000000000000000000000000000000000000000000602082015250565b6113ef816110f5565b81146113fa57600080fd5b5056fea26469706673582212207f9d8239bebd5d4df0ace5ae0d5f7689ff0c105490c903fb5ee066956cadfa4864736f6c63430008010033a26469706673582212207a6ead3b789bb066d7da5b77f85940c5546479d1606516c1b8ca0219b283875364736f6c63430008010033",
  "immutableReferences": {},
  "source": "    //SPDX-License-Identifier: MIT\r\n    \r\n    pragma solidity 0.8.1;\r\n    \r\n\r\n    import \"./Bet.sol\";\r\n    import \"./Ownable.sol\";\r\n\r\n    contract BetManager is Ownable {\r\n    \r\n        struct S_Bet {\r\n            Bet _bet;\r\n            BetManager.BetSteps _step;\r\n        }\r\n        mapping(string => S_Bet) public bets;\r\n        string index;\r\n\r\n        enum BetSteps {Created, CreatorPaid, PlayersPaid, ContractFinished}\r\n    \r\n        event BetStep(string _Index, uint _step, address _address);\r\n        \r\n        // ratio came on base 100\r\n        function createBet(address payable _creatorAddress, uint _creatorBudget, uint _ratio,\r\n                            uint _gameDate,  uint _creatorChoice, uint _playersBudget,\r\n                            string memory _index) public {\r\n            Bet bet = new Bet(this, _creatorAddress, _creatorBudget, _index, _ratio, _gameDate,\r\n                                _creatorChoice, _playersBudget);\r\n            index = _index;                    \r\n            bets[index]._bet = bet;\r\n            bets[index]._step = BetSteps.Created;\r\n            emit BetStep(index, uint(bets[index]._step), address(bet));\r\n        }\r\n        \r\n        \r\n    \r\n        function triggerCreatorPayment(string memory _index) public {\r\n            Bet bet = bets[_index]._bet;\r\n            emit BetStep(_index, uint(bets[_index]._step), address(bet));\r\n            require(address(bet) == msg.sender, \"Only bets are allowed to update themselves\");\r\n            require(bets[_index]._step == BetSteps.Created, \"bet is already initiated\");\r\n            bets[_index]._step = BetSteps.CreatorPaid;\r\n            emit BetStep(_index, uint(bets[_index]._step), address(bet));\r\n        }\r\n        \r\n        function triggerPlayerPayment(string memory _index) public {\r\n            Bet bet = bets[_index]._bet;\r\n            uint time = block.timestamp;\r\n            require(address(bet) == msg.sender, \"Only bets are allowed to update themselves\");\r\n            require(bets[_index]._step == BetSteps.CreatorPaid || bets[_index]._step == BetSteps.PlayersPaid, \"bet is not open\");\r\n            if (time > bet.gameDate() ) {\r\n                bets[_index]._step = BetSteps.ContractFinished;\r\n                emit BetStep(_index, uint(bets[_index]._step), address(bet));\r\n            }\r\n            else {\r\n                bets[_index]._step = BetSteps.PlayersPaid;\r\n                emit BetStep(_index, uint(bets[_index]._step), address(bet));\r\n            }\r\n        }\r\n        \r\n        \r\n        function triggerContractFinished(string memory _index , uint _choice) public {\r\n            bets[_index]._step = BetSteps.ContractFinished;\r\n            bets[_index]._bet.finishContract(_choice);\r\n            emit BetStep(_index, uint(bets[_index]._step), address(bets[_index]._bet));\r\n        }\r\n        \r\n        fallback () external {\r\n     }\r\n     \r\n    }",
  "sourcePath": "C:\\Users\\prono\\OneDrive\\Desktop\\material-dashboard-react-main\\contracts\\BetManager.sol",
  "compiler": {
    "name": "solc",
    "version": "0.8.1+commit.df193b15.Emscripten.clang"
  },
  "schemaVersion": "3.4.3",
  "updatedAt": "2021-09-12T10:47:45.342Z",
  "networkType": "ethereum",
  "devdoc": {
    "kind": "dev",
    "methods": {
      "owner()": {
        "details": "Returns the address of the current owner."
      },
      "renounceOwnership()": {
        "details": "Leaves the contract without owner. It will not be possible to call `onlyOwner` functions anymore. Can only be called by the current owner. NOTE: Renouncing ownership will leave the contract without an owner, thereby removing any functionality that is only available to the owner."
      },
      "transferOwnership(address)": {
        "details": "Transfers ownership of the contract to a new account (`newOwner`). Can only be called by the current owner."
      }
    },
    "version": 1
  },
  "userdoc": {
    "kind": "user",
    "methods": {},
    "version": 1
  }
}